:020000040002F8
:1060000028570020C1630200C9630200CB6302006D
:10601000CD630200CF630200D163020000000000E4
:10602000000000000000000000000000D363020038
:10603000D563020000000000D7630200D9630200AC
:10604000A5670200DB630200656A0200DB630200F1
:10605000DB630200DB6302008D650200DB6302008C
:10606000DB630200DB630200DB630200DB63020030
:10607000DB630200DB630200DB630200DB63020020
:10608000DB630200FD670200DB630200DB630200EA
:1060900081680200DB63020085680200DB630200A6
:1060A000DB630200DB630200DB630200DB630200F0
:1060B000DB630200DB630200000000000000000060
:1060C000DB630200DB630200DB630200DB630200D0
:1060D000DB630200DB630200DB630200DB630200C0
:1060E000DB630200DB630200DB63020000000000F0
:1060F00000000000DB63020000000000DB63020020
:10610000000000000000000000000000000000008F
:10611000000000000000000000000000000000007F
:10612000000000000000000000000000000000006F
:10613000000000000000000000000000000000005F
:10614000000000000000000000000000000000004F
:10615000000000000000000000000000000000003F
:10616000000000000000000000000000000000002F
:10617000000000000000000000000000000000001F
:10618000000000000000000000000000000000000F
:1061900000000000000000000000000000000000FF
:1061A00000000000000000000000000000000000EF
:1061B00000000000000000000000000000000000DF
:1061C00000000000000000000000000000000000CF
:1061D00000000000000000000000000000000000BF
:1061E00000000000000000000000000000000000AF
:1061F000000000000000000000000000000000009F
:10620000DFF80CD000F084F900480047D9AB020059
:106210002857002030B450E8012F93B2C48923449A
:106220008489A34228BF1B1B0489A34202BFBFF37A
:106230002F8F002007E0C3EA020340E80134002C5E
:10624000E9D14FF001000A6030BC704750E8012FDF
:10625000C2EA024240E801210029F7D1704730B478
:1062600050E8022F1FFAA2F3C488A34202BFBFF373
:106270002F8F00200DE0C48923448489A34228BFC6
:106280001B1BC2EA034340E80234002CE8D14FF064
:1062900001000A6030BC704750E8022FC2EA224277
:1062A00040E802210029F7D17047034653E8022F46
:1062B000D988B2EB324F4FF0000017BF92B241EADB
:1062C000014142EA014104E05A68B2EB324F08BF93
:1062D000012043E80212002AE8D1704730B4044696
:1062E00054E8000F0D4644E80053002BF8D1156028
:1062F00030BC704730B4044654E8000F40EA010552
:1063000044E80053002BF7D1156030BC704730B41F
:10631000044654E8000F00EA010544E80053002B4E
:10632000F7D1156030BC704730B4044654E8000F14
:1063300080EA010544E80053002BF7D1156030BC1A
:10634000704730B4044654E8000F00EB010544E800
:106350000053002BF7D1156030BC704730B40446B1
:1063600054E8000FA0EB010544E80053002BF7D1DF
:10637000156030BC704770B404464FF0000054E81C
:10638000006F0D68AE4207BF44E80023012044E8D7
:1063900000630E60002B1CBF0020F0E770BC70474C
:1063A00030B4044654E8000F88422CBF451A054615
:1063B00044E80053002BF5D1156030BC7047000055
:1063C0000648804706480047FEE7FEE7FEE7FEE78F
:1063D000FEE7FEE7FEE7FEE7FEE7FEE7896802006C
:1063E000016202002DE9F05F0546002092469B46BF
:1063F00088460646814640241BE0284641464746DB
:10640000224600F074F853465A46C01A914110D300
:1064100011461846224600F016F82D1A67EB0108BF
:106420004F4622460120002100F00DF817EB00092D
:106430004E41201EA4F10104DFDC484631462A46C5
:106440004346BDE8F09F202A04DB203A00FA02F11F
:10645000002070479140C2F1200320FA03F3194352
:106460009040704700487047E00B030040EA01038A
:106470009B0703D009E008C9121F08C0042AFAD2FA
:1064800003E011F8013B00F8013B521EF9D27047BE
:10649000D2B201E000F8012B491EFBD27047002266
:1064A000F6E710B513460A4604461946FFF7F0FF13
:1064B000204610BD421C10F8011B0029FBD1801A98
:1064C000704730B504460020034600E05B1C934251
:1064D00003D2E05CCD5C401BF8D030BD034611F820
:1064E000012B00F8012B002AF9D118467047202A09
:1064F00004DB203A21FA02F00021704721FA02F36E
:10650000D040C2F120029140084319467047000074
:10651000064C074D06E0E06840F0010394E80700F0
:1065200098471034AC42F6D3FFF76EFE74130300A5
:106530009413030070B58C1810F8015B15F0070375
:1065400001D110F8013B2A1106D110F8012B03E00C
:1065500010F8016B01F8016B5B1EF9D12B0705D414
:106560000023521E0DD401F8013BFAE710F8013B5D
:10657000CB1A921C03E013F8015B01F8015B521E79
:10658000F9D5A142D8D3002070BD00002DE9F04F0D
:1065900000268DB0DFF8A081B14604964FF48075D7
:1065A000012437460596284605F08CFC38B1D8F80A
:1065B0000403204203D0284605F07AFC26432D1D13
:1065C00064007F1CADB2082FEDD34FF4BE7420469B
:1065D00005F078FC48B1204605F06AFC46F000461C
:1065E00004AA0221002005F04DFC544C16F0FF0FC8
:1065F00015D00127002537420DD008EB8501D1F8D1
:106600001005D1F81015C0F3052054F82520C1F36A
:10661000014102B190477F006D1C082DEBD3002E85
:106620007EDA0020CDF82890411E0DF1100B07AA4C
:10663000CDF82C9042F82010401C91460228F9D346
:1066400000252E46A11911F8607F91F9000027F06E
:10665000C008401C40D007A9404604F0D0FD40B31C
:106660004FEA971A404602F0E1FA54F820701FB141
:10667000BAF1030F03D006E0BAF1030F2CD10AA937
:10668000404604F0C4FD02A8CDF8088005F09EFB4A
:10669000029900EB8100D0F8000704A9C0F3014083
:1066A0000290404604F0ABFD0028029802D0022878
:1066B00002D011E003280FD1BAF1030F08D10298DC
:1066C000022833D00221404605F05AFB6D1CEDB282
:1066D00017B151464046B847761C042EB2D3002D60
:1066E00021D001AA0221002005F0CCFB00205A464F
:1066F0000DF1040152F8206051F82030B34217D058
:1067000000200AAE4FEA090351F8207042F82070C9
:1067100056F8207043F82070401C0228F4D300E0A3
:1067200001E0002D8CD10DB0BDE8F08F0321CAE748
:10673000401C0228DED3F6E700600040DC2B00207E
:1067400000F01F02012191404009800000F1E0208B
:10675000C0F88012704700F01F02012191404009EB
:10676000800000F1E020C0F80011704700F01F0227
:10677000012191404009800000F1E020C0F80012A2
:1067800070474907090E002806DA00F00F0000F1F3
:10679000E02080F8141D704700F1E02080F800141C
:1067A0007047000070B54FF48076304604F066FE06
:1067B000114CB50560B1304604F067FE0120C5F804
:1067C0000803607920B901206071216800208847A2
:1067D0004FF48276304604F051FE00280AD030464D
:1067E00004F053FE0220C5F808032168BDE870409C
:1067F0000120084770BD00004C23002007480021FD
:10680000C0F84011C0F84411C0F84811C0F84C114C
:10681000C0F80011C0F8041109F05EB90010014081
:1068200000F026B970B50E46144900EB400001EBAC
:10683000C0051446E86A183520B101280FD0022897
:1068400005D113E0284600F047F9A04201D2002408
:1068500011E022463146284600F076F90BE0284642
:1068600000F03AF9A042F4D20446F2E73146284655
:1068700000F03DF90446204670BD0000A034002021
:1068800009F078B806F076B830B54FF080500022A5
:106890008300D0F83011C3F80C21C3F81021624BEB
:1068A0001A60624B1B68624C2360604B1B1D1B68A7
:1068B000241D23605D4B08331B68241D23605B4B44
:1068C0000C331B68241D2360584B10331B68241D98
:1068D0002360564B14331B68241D2360534B18331D
:1068E0001B68534C20342360504B1C331B68241D01
:1068F00023604E4B20331B68241D23604B4B2433F5
:106900001B68241D2360494B28331B68241D23600A
:10691000464B2C331B68241D2360444B30331B68CB
:10692000434C40342360414B34331B68241D2360A7
:106930003E4B38331B68241D23603C4B3C331B68A3
:10694000241D2360394B40331B68241D2360012420
:10695000082902D1D0F8343113B1082904D006E057
:10696000354B3449196005E0D0F8343113B10829AA
:1069700004D006E0314BFB21196005E0D0F834313A
:1069800013B1082908D00EE090F858322C4801685D
:1069900063F30301016002E0D0F834311BB92949E7
:1069A0004FF40070086028480168C90702D06FF0F2
:1069B000010101602548016841F470010160BFF3E5
:1069C0004F8FBFF36F8F4FF01021D1F800020028D6
:1069D00003DBD1F80402002822DA1D4B1C601D489D
:1069E0000468002CFCD01224C1F800420568002D78
:1069F000FCD0C1F8044201680029FCD01A6001688B
:106A00000029FCD0BFF34F8F10487C380168124A30
:106A100001F4E06111430160BFF34F8F00BFFDE758
:106A20000F490E48086030BD3805004004040010CE
:106A300020C50040488103008C56004018F50040F6
:106A4000E40E0040409602400004004088ED00E063
:106A500004E5014000E401400400FA050090D00381
:106A60007C240020014800680047000054230020D7
:106A700010B5124C02202061606111A0A06104F1E8
:106A80007800E0614FF4007020620020A062606234
:106A90000BA1A164E06204F51E71E1641021A06500
:106AA000C4E91410E06509A1E01DFFF717FD08A176
:106AB0002046FFF713FD2020A07110BDA034002058
:106AC0005465726D696E616C000000005254540090
:106AD00053454747455200000269C1688A4203D8BE
:106AE0008068401A104400E0501A401E70472DE99B
:106AF000F047C4681746894606464FF000083069DB
:106B0000A04201D9051B02E0B168201A0D1AB06835
:106B10006D1E001BA84200D80546BD4200D33D466D
:106B200070682A4620444946FFF7A0FCB0687F1BE6
:106B30002C44A844A944A04200D10024F460002FB2
:106B4000DDD14046BDE8F0872DE9F0410446884696
:106B5000D4E90207C51BE168606816460844B542DF
:106B600006D94146FFF782FCB819E060BDE8F08124
:106B70002A464146FFF77AFC761B08EB05013246B0
:106B80006068FFF773FCE660F0E702E008C8121FD8
:106B900008C1002AFAD170477047002001E001C106
:106BA000121F002AFBD170470121202803DA8140FF
:106BB0000548014003E0402802DA2038814009B14D
:106BC0000120704700207047FC06FFBD10B560B182
:106BD00059B102780B785208B2EB530F05D1062257
:106BE000401C491CFFF76DFC08B1002010BD0120BE
:106BF00010BD800701D00020704701207047C36896
:106C00008B4206D811440069491E814201D80120F7
:106C100070470020704710B501220221002001F0CA
:106C200015FE08B1072810D107220221012001F02A
:106C30000DFE08B1072808D100210A22084601F0FC
:106C400005FE08B1072800D1002010BD00B5ABB08B
:106C5000AC216846FFF723FC02208DF800000120DC
:106C60008DF8020006218DF803100321ADF81010F5
:106C70000D490591ADF84C008DF87C003A3928207B
:106C80001491229044F2506023900848299069465C
:106C9000074800F04EFD08B100F0EEF8012104486D
:106CA00000F044FD2BB000BD68220020E9D20200B4
:106CB0006027002010B550B10A480321008801EB7D
:106CC000004009A105F0D8FA07F0DAFB03E0032140
:106CD000094800F00DFE002803D0BDE8104000F088
:106CE000CBB810BDCC240020457261736520626F63
:106CF0006E647321000000006027002070B58CB026
:106D000015460E4600236C46C3F10F01415CE15469
:106D10005B1C102BF8D30D2104F11000FFF7BFFB13
:106D20000020C0F10F02315C2244401C1174032882
:106D3000F7D3684646DF0020C0F10F01214491F8E7
:106D400020102954401C0328F6D30CB070BD02203B
:106D500001F076BC0149097901F028B8D022002061
:106D600070B50024064D06E06868012110F8340073
:106D700005F0EAFE641C28788442F5D3002070BD3B
:106D800060230020F8B515460C460646052A01D2B8
:106D90000720F8BD05F0D0FF18B905F093FF0028D3
:106DA000F7D1124900224E600C708D60C1E90422B7
:106DB000C1E906220E4D0DE006EBC40029680091E2
:106DC00081788DF8011000780A4A694605F008FFBD
:106DD0000028DED1641EE4B2EED2BDE8F8400448DB
:106DE0000021054A001D00F07BB800006023002050
:106DF00058080300399D02001991020072B605F08F
:106E0000F1FA00BF05F028F90028FBD1104C012150
:106E1000208801EB00400FA105F02EFA1048006811
:106E2000C00700D000BE2088022101EB00400DA168
:106E300005F022FABFF34F8F0948E43801680D4A84
:106E400001F4E06111430160BFF34F8F00BFFDE724
:106E5000CC240020466174616C206572726F7200F0
:106E6000F0ED00E053797374656D2072657365749D
:106E7000000000000400FA050EB500210091CDE9E4
:106E800001106A4644F20100FFF7B8FF0EBD10B5CD
:106E90008268C368934203D002F09CFC002010BDBE
:106EA000052010BD29B112B1531E134203D0092091
:106EB00070470E2070470160838000218160C160AF
:106EC0000846704710B58268C3689A1A83889A4248
:106ED00003D802F089FC002010BD042010BD000082
:106EE000084B9B7823B12AB120B10068037C1BB109
:106EF00008207047072070470023037441744261E3
:106F000018467047B82C002070B507F0C5FD104832
:106F100000240B21047044700E4D817014206C60AD
:106F20002C706C70FFF70CFC07211420FFF729FC74
:106F30001420FFF710FC0848046007211120FFF718
:106F400020FC0548001F0068A860002070BD0000FC
:106F5000B82C002080230020081501402DE9FC47B3
:106F6000DFF8789099F8023073B368B3052902D23C
:106F70000720BDE8FC87436933B3437C012B25D050
:106F8000002704460025884616468DF800506846BE
:106F900000F0CEF801A809F0FBF8C8B1012101709A
:106FA0000F4944600968C0E90218C0E904769DF8F9
:106FB000040089F801009DF8000000F0DDF81420BD
:106FC000FFF7D4FB2846D4E70820D2E70F46D8E7DE
:106FD00004259DF8000000F0CFF8F3E7B82C00205E
:106FE000041501400649897839B130B1416921B1B0
:106FF00000210174022108F04BBD082070470000F9
:10700000B82C002070B50A4E01460A48B578FFF743
:107010003EFF04464DB10020B070711C0122C81D16
:1070200004F0A4FA08B1FFF727FF204670BD000066
:10703000FC2300205C2F0020F0B5244E89B01F46B1
:107040000D00044672603FD0A888296882B22048AB
:10705000FFF728FF002835D1A889A96882B21C480B
:107060001030FFF71FFF00282CD120221949684655
:10707000FFF7FCF960690690207C00B101208DF8D3
:1070800014008DF81C70607C00B10E208DF8150086
:10709000E0680290A068039020680190606800900A
:1070A0000A480D4A6946083004F02CFA002809D134
:1070B000B0702068401C05D004490122491CC81D3D
:1070C00004F054FA09B0F0BD0720FBE7FC230020D0
:1070D0005C2F0020800A0300D1FC020010B501469D
:1070E0001048FFF7EFFE040019D10F480F4A01784E
:1070F000515C19B1001D06F0A1F802E00C3005F05A
:1071000085FF60B9084907480839FFF7C0FE30B964
:10711000054901220839044804F038FA044620469B
:1071200010BD00006C2F0020042400203823002014
:1071300030B5EFF3108172B60D4A9468012324B183
:107140000370002900D162B630BD93604FF0E02398
:10715000D3F88051074C25401560C3F88041D3F81F
:10716000844154605A17C3F8842100220270E8E772
:10717000C42D0020FC06FFBD0B498A68002A11D0EF
:1071800000280FD1EFF3108072B60B684FF0E022A9
:10719000C2F800314B68C2F8043100228A6000282E
:1071A00000D162B670470000C42D002070B50546BE
:1071B00008680C46411C04D004F03DFE206804F031
:1071C000CBFD6068411C02D0002104F0B3FD2968AA
:1071D000A069C1F82405607D227D29681043C1F8AB
:1071E0006C05D4E900122868C0F81425C0F80C1505
:1071F000207D012814D1A068411C02D0002104F098
:1072000099FDE068411C04D004F015FEE06804F02C
:10721000A3FDD4E902122868C0F80825C0F81015AB
:1072200070BD70B5054608680C46411C04D004F0DA
:107230000CFE206804F09AFD6068411C02D0002119
:1072400004F081FD2968A069C1F82405607D217DD5
:107250002A680843C2F86C05D4E900122868C0F80F
:107260000C15C0F81425207D012814D1A068411CFC
:1072700002D0002104F067FDE068411C04D004F056
:10728000E4FDE06804F072FDD4E902122868C0F859
:107290000825C0F8101570BD03F0FABB2DE9F047C2
:1072A000074600888EB0804603F0E8F88246044620
:1072B0002D4800252A460178404600F08FFD787958
:1072C000400734D501254FF6FF7603AB2A46072148
:1072D000504606F02BFB010004D0404607F036FE76
:1072E00000252BE0B1463146049803F01BF8064612
:1072F00048450FD004460146404603F0A9F84046F1
:10730000FFF728FD30B9404607F0F2FD4046FFF791
:1073100021FD48B122460721504606F07DFB0100C1
:1073200003D0404607F012FE00254E4506D04046E9
:1073300006F0E0FC10B1504603F08CF802208DF806
:107340001800ADF81A807879400701D5012000E0D7
:1073500002208DF820008DF8215006A802F050F888
:107360000EB0BDE8F0870000D02200202DE9F043E8
:107370000546407C93B00E460024A0B107949DF8CA
:107380001C0020F00F00401C20F0F00010308DF8A1
:107390001C00707B8DF81D009DF81E0020F006007B
:1073A000801C8DF81E001C216846FFF778F89DF8B8
:1073B000000040F002008DF80000697C11B140F03F
:1073C000100001E020F010008DF8000001940394FB
:1073D0000494687C00B107A8CDE9050401278DF865
:1073E000427042F61920ADF840000D94B07B8DF844
:1073F0003400F07B8DF835009DF83600142120F024
:107400000600801C20F019008DF83600307B8DF8C6
:10741000440008A8FFF743F80DF140080DF13409C6
:10742000ADF8287011A8CDE90889ADF82A40ADF86B
:107430002C700C90A888AB1D08AA6946AADF00280A
:1074400038D1B06898B38DF8427042F60810ADF8A4
:1074500040000D94307C8DF834009DF8350020F00C
:10746000FF008DF835009DF8360020F00600801CE6
:1074700020F019008DF836000EA8B16801F095F8DB
:107480000646142108A8FFF70AF8ADF828600EA8F0
:10749000CDE90889ADF82A40ADF82C600C90E88859
:1074A00005F10E0208A9ABDF002803D101E0FFE7D8
:1074B000EC81002013B0BDE8F083000010B50D4949
:1074C0000D4807F0A2FDC1B24FF6FE720B4800F066
:1074D0002BFB00280DD008280BD0132809D0112829
:1074E00007D043F20141884203D0BDE81040FFF7C6
:1074F000C3BC10BD182800203C220020102700200B
:107500000A4601461046AEDF704770B515000446C6
:1075100009D00020286034B1206820B1A07980070C
:1075200003D0072070BD0E2070BD084600F0DEFBC2
:10753000C0B2142804D02179814203D8042070BD40
:10754000052070BDE288216800FB02102860002041
:1075500070BD2DE9FC47002517880646158090F878
:107560002D001446894630B13A462146484600F07F
:107570005FFC051E09D1B0784FF00C0A18B32088C3
:10758000C846001DB84202D95046BDE8FC8768468F
:1075900079DF0028F9D12088032108F8001020881D
:1075A0001921401C80B2208008F800102088401C5F
:1075B00080B2208000EB0801BDF8000008F016FD45
:1075C000218808442080F0780222C8B1218896F9E9
:1075D000033001F1030C4846BC45D5D842542188FC
:1075E0004FF0010C491C89B2218000F801C02188AC
:1075F000491C89B2218009F801302088401C208074
:107600007068B8B1218890F9003001F1030C484648
:10761000BC45B9D8425421880A22491C89B221802C
:1076200042542188491C89B2218009F80130208800
:10763000401C2080308950B1CDE900474B460622DE
:10764000022106F1080008F0BBFD051E9DD1308A1D
:1076500050B1CDE900474B460722032106F1100047
:1076600008F0AEFD051E90D1308B50B1CDE900473A
:107670004B461522142106F1180008F0A1FD051E45
:1076800083D1306A30B13B462246494601F0D9FBEE
:10769000051EDBD1706A30B13B462246494603F0F5
:1076A00069FB051ED2D196F82C0038B13B46224624
:1076B0004946304607F050FD051EC7D1307838B135
:1076C0003B4622464946304603F0DAFB051EBDD153
:1076D00028465AE718B504460020ADF800001346C6
:1076E0006A46204600F006F8002802D0BDF80000E7
:1076F000204418BD70B588B182B10024158803E01C
:10770000065D641C3444A4B2A54203D806197678F9
:107710009E4201D08C42F3D38C4201D3002070BD35
:10772000A11C1180005D401E80B270BD80F8301039
:1077300070472DE9F0410E00044606D02CB196F8B2
:107740007A000025012803D006E00E20BDE8F08174
:1077500096F89800012821D04FF00108A5702C223E
:1077600006F17801201DFEF781FE84F83050D6F82E
:10777000A4006063D6F8A800A0634FF6FF70A4F8D9
:10778000A80004F19400C4F8A400C4F8AA50A4F816
:10779000AE5084F8B050207810B104E00720D5E74F
:1077A000FF2084F8540004F155011F27C4F89410F9
:1077B000A4F8987004F198023046FFF7CAFE00283A
:1077C000C4D116F13C0F0ED004F17401C4F89C1022
:1077D000A4F8A07004F1A00206F13C00FFF7B9FE86
:1077E0000028B3D103E0C4F89C50A4F8A05084F85A
:1077F0005180208BA4F8480084F83C80256484F8EC
:10780000505060696064464604F13C02002104F176
:10781000540072DF002899D1267097E710B50288CE
:10782000102A1BD0112A20D0262A1DD1007A0C46FE
:10783000012801D0022817D1A0780521401CB0FBF7
:10784000F1F201FB1201204600F052F800280BD0A3
:10785000A16B002908D0BDE810400847C27B012A6F
:1078600002D18088A1F8A80010BD0C46002184F840
:10787000B2108088B4F8A8108842F5D12079002889
:10788000F2D10121DFE710B50C46022801D0032810
:1078900010D1607800280DD000206070A1782046BB
:1078A00000F026F8002805D0A16B002902D0BDE821
:1078B0001040084710BD10B5044690F8540074DF1E
:1078C000012084F8B200002084F8B40084F850004D
:1078D0000621204601F0ADFF002808D1A1782046FE
:1078E00000F006F810B1A16B01B18847002010BD6F
:1078F0002DE9F05F044600780F4638B1A7700020EC
:1079000004F034F8012620B1667007E10820BDE8D4
:10791000F09F0025C4F8AA50A4F8AE5084F8B050E7
:10792000A07910B1A078012806D0E07968B1A078DC
:10793000012801D0022808D1616B21B184F8B1601F
:107940000820884701E084F8B15004F1AB01002021
:107950000A5C0AB1304603E0401C0628F8D3002038
:107960004FF002084FF0030B012F06D0022F0CD06E
:10797000032F0FD0042F15D110E0A17929B194F86D
:10798000241011B908B130460DE0E17911B108B108
:10799000404608E0207A08B1584604E0607A08B111
:1079A000042000E02846A070616B41B1032801D09B
:1079B000042804D1607910B194F8B200A0B184F821
:1079C000B35004F13C0018210746FEF768FD04F1AE
:1079D0002C0084F83C60814606F0B8FA58B194F85F
:1079E0002C0084F8510008E084F8B45084F8B360A7
:1079F00007208847E5E784F8516094F8240050B1E7
:107A0000484606F0A3FA20B194F8280084F8520002
:107A100001E084F8526084F85050A27804F1AA0181
:107A200004F194094FF0060A052A60D2DFE802F05B
:107A300078030F223F0084F83160C4F8A450C4E9F1
:107A4000101584F83C808020A4F8480051E084F8A8
:107A5000318094F82420384612B10722027001E0E8
:107A600080F800B0228A8281C4F8A4504160E168A5
:107A7000B9603EE06069B860208BB88194F824005A
:107A80003D4610B184F83CA001E084F83C602046FB
:107A900008F05AFB40B185F814800421204601F01B
:107AA000C8FE20BB05211EE084F831B01DE0E0696E
:107AB000B860208CB88194F824003D4610B184F859
:107AC0003CA001E084F83C60204608F03DFB48B152
:107AD00085F814800421204601F0ABFE38B984F803
:107AE00031A002E0042184F83110C4F8A490A078F9
:107AF00078B13A4604F15400D4F8A41072DF00289B
:107B00007FF405AF94F8301094F8540073DF002828
:107B1000F6D1616B11B194F8310088470020F6E688
:107B200084F83150F5E70000F7B594B0174605002A
:107B30003CD0287C9DF854100024884252D0002666
:107B40004FF0010E0D9615A8ADF834E00E90ADF88B
:107B50003660E9880DAA4FF6FF70ACDF040026D12D
:107B60009DF854002874687CA0B30F961096119667
:107B70001296E888ADF83C00BDF83600ADF840003C
:107B80000DA811900E981290A7F57F408DF83EE059
:107B9000FE3805D039460FA8FFF7B2FC044621E0B5
:107BA000684600F09DF800256F460FE00E2017B0E4
:107BB000F0BD00BF07EB4506B08800F0D9F80228F9
:107BC00003D144B10FA9B088AEDF6D1C0098A84264
:107BD000F0D807E005E0B1880FA8FFF791FC044654
:107BE000F3E708242046E2E738B50D46040018D034
:107BF000BDB12868206028796074FF2020740120BE
:107C00008DF8020041F60F00ADF80000221D694614
:107C10000120A8DF002803D129462046FFF7A6FB54
:107C200038BD0E2038BD38B5002924D0002822D018
:107C30000288502A1FD10546487C0C4600281AD0DD
:107C4000E9886289A81D914215D14189022912D182
:107C5000216800290FD00C3000F0A3FC08B10020EF
:107C600000E001208DF80000A888ADF8020022682D
:107C700069462046904738BD70B5040012D00146D1
:107C80001C221448FEF7F2FB1248134D05602068D1
:107C900050B17ADF002806D1206801682960406869
:107CA000686005E00E2070BD0B487BDF0028FAD12C
:107CB00008484FF6FF711438084A20F8041B05499C
:107CC000343901600021FFF70BF90028EBD00320C5
:107CD00070BD0000D828002090220020E1000300A1
:107CE0000149496801F08EB8F428002010B5044617
:107CF00000F094F808B1204610BD142010BD00001B
:107D000010B5044600F08AF8002805D02146BDE8E9
:107D10001040024803F0D7B910BD0000042900202C
:107D200070B515460E46044608F01AFA002809D028
:107D3000054800EB840080692A463146BDE8704062
:107D400001F0B6BD70BD0000F428002070B50546F6
:107D5000002400F063F838B12946044803F0B3F971
:107D600008B1022400E00124204670BD0029002053
:107D700070B50546002400F051F838B12946044892
:107D800003F0A1F908B1022400E00124204670BDEF
:107D9000FC28002010B51821034803F06FF91828BB
:107DA00000D0C0B210BD0000F428002070B5054618
:107DB0000C46084608F0D4F960B1284600F02EF8C9
:107DC00040B10548294600EB8400BDE870401830FA
:107DD00003F079B9002070BDF428002070B5054685
:107DE00014460E46084608F0BBF9002812D0284673
:107DF00000F014F800280DD00748294600EB860053
:107E000018301CB1BDE8704003F068B9BDE870409F
:107E100003F019B970BD0000F4280020142801D324
:107E2000002070470146014803F04DB9F8280020B2
:107E30007CB5054608880C460930904201D90C20D3
:107E40007CBD68466DDF0028FAD12188082068547F
:107E500020881B21401C80B2208029542088401C8F
:107E600080B220802844DDF801100160BDF80510C3
:107E700081802088801D80B220809DF800104908F4
:107E800000D0012129542088401C208000207CBD86
:107E90007FB5044601208DF8060041F60A00ADF8D2
:107EA0000400454A01A90120A8DF00287ED12288CC
:107EB00004F13C0552B140482B46801C009042F62C
:107EC0002920616800F0BAFE002873D1228952B1DE
:107ED00039482B460A30009042F62420E16800F031
:107EE000ADFE002866D1228A52B133482B461230AB
:107EF000009042F62520616900F0A0FE002859D1CB
:107F0000228B52B12C482B461A30009042F6272083
:107F1000E16900F093FE00284CD1228C52B1264832
:107F20002B462230009042F62620616A00F086FE41
:107F300000283FD1228D52B11F482B462A30009095
:107F400042F62820E16A00F079FE002832D1216B48
:107F500071B102A807F0D0FC17482B4632300090D0
:107F6000082202A942F6232000F068FE002821D151
:107F7000606B58B110492B463A3100910279016883
:107F800042F62A2000F05AFE002813D1A16B81B1DD
:107F900002A806F0CEFA08482B464230009007228D
:107FA00002A942F6502000F049FE00E002E000285D
:107FB00000D1002004B070BDEE220020F8B5018889
:107FC0000026044621292FD012DC1E484FF0030260
:107FD0001D4D0088102902EB004011D0112906D157
:107FE0001AA104F049F94FF6FF7068802E70F8BDB1
:107FF0003B2922D05629FAD18088132176DF0DE063
:1080000016A104F039F9072000F042FC08B1FEF790
:1080100033FFA1886980144803F0B8F90028E6D03E
:10802000BDE8F840FEF728BF0096808869468FDFDC
:108030000028DCD0FEF720FFF8BD8088132176DF12
:10804000ECE70000CC240020282200204469736360
:108050006F6E6E65637465642E000000436F6E6E14
:1080600065637465642E00005427002010B51A4C17
:108070000188606810290ED011292BD1401E606044
:1080800028D1FEF7C8FD002824D02168002921D07E
:10809000BDE810400847D0B900210122084600F091
:1080A000D5FB08B107280FD107220221012000F0DB
:1080B000CDFB08B1072807D104220221002000F0DF
:1080C000C5FB20B1072802D0216801B1884760684C
:1080D000401C606010BD0000882200202DE9F047A0
:1080E00001883B4E40F2F3194FF6FF7510291BD063
:1080F00011293ED0122954D0502946D1C188F28985
:10810000841D914241D1618902293ED18688304641
:1081100002F060FA050038D004F10C0000F041FADA
:10812000A8B3294630464EE0C17B87880446012922
:108130002BD1A846284602F04DFA050017D02F8013
:1081400000202872234843464A460168C5F80A10B1
:108150004068C5F80E0004F1100105F10A0002F0B4
:1081600005FB6872F08900280FD129462AE0042017
:1081700013E0808802F02EFA040006D06068FEF753
:1081800031FF08B106F0C6FE2580BDE8F087FFE7A5
:108190006868FEF727FF0028F7D0BDE8F04706F033
:1081A000B9BE87880646384602F014FA0400ECD0BF
:1081B0002B464A4606F1080104F10A0002F0D6FAFD
:1081C000607221463846BDE8F04700F081BE0000ED
:1081D000D8280020902200202DE9F04F07468588FE
:1081E00002883D48012197B08346102A09D0112A00
:1081F00049D01A2A6CD1387AB1EB101F45D201222E
:1082000044E0354C083CA068C0430B9061680BA863
:1082100002F07DFF0B990CA800F0F4FD2C220CA9B4
:108220006846FEF723F90026E946A04610E000BFA5
:1082300009EB46005FF00004B0F804A008EB8400EE
:108240005146001D02F0FFFE641C1D2CF6D3761C67
:108250000098B042ECD8142D05D317B00420BDE827
:10826000F04FFEF709BE2946584602F037FF29466F
:1082700008F1040002F032FFF87B012828D01648EC
:108280002946001D15E029461AE000220221B1EB23
:10829000101F01D2012600E000260F49083901F124
:1082A0001000041D294682B102F018FF36B129469C
:1082B000204617B0BDE8F04F02F010BF2946204617
:1082C00017B0BDE8F04F02F0BEBE02F0BCFEF5E70D
:1082D00017B0BDE8F08F0000FC28002010B5044660
:1082E0000748007800280AD0204601F0A1FF204668
:1082F00007F05CF82046BDE8104001F01FBC10BD3F
:10830000C022002038B50446086820604FF6FF7090
:10831000E082887A207601208DF8020041F609007B
:108320000D46ADF80000221D69460120A8DF002897
:108330000ED12946204601F023FE002808D1687A94
:1083400028B12946204601F0EFFE002800D1002088
:1083500038BDFEB500250E4602210095ADF800108F
:1083600002A9ADF8025001914189C08A6A46ADDF89
:10837000040043F2014004D0844206D1357000204D
:10838000FEBD02A800F009F930702046FEBD30B5F0
:108390000446C08A8BB0A0F57F42FF3A23D005AADD
:1083A000204601F053FE0546ADF800000020019084
:1083B000029003900490E188ADF804100221ADF81A
:1083C00008008DF8061005A8CDF80CD00490E08ABE
:1083D00001A9AEDF002804D1BDF80010A94200D0E9
:1083E0000C200BB030BD0820FBE738B50288102AFE
:1083F00012D0112A12D0502A14D0532A0BD10A4677
:10840000C088C988884206D102208DF80000136810
:1084100069461046984738BD808801E04FF6FF70E6
:10842000C88238BD0C4630F8061F62899142F8D1E7
:1084300041890229F5D121680029F2D00C3000F0E1
:10844000ACF808B1002000E001208DF8000022689F
:1084500069462046904738BDF0B585B016460F46B0
:1084600004001D4614D004AA19466069FFF74DF8B0
:1084700000280BD1A5F57F40FF380BD0049848B1F8
:10848000007848B13088142808D9072005B0F0BD1D
:108490000E20FBE70520F9E70820F7E70020009011
:1084A000019002900390A088ADF8000001208DF8A3
:1084B0000200CDE9026769462846AEDFE6E7000024
:1084C00030B5144B0D4604000FCB85B08DE80F007E
:1084D0001ED0EDB12868A0612146684662DF002801
:1084E00014D120788DF812000120ADF81000A21CE4
:1084F00004A9A8DF002809D12946204606F003FB7D
:10850000002803D12946204607F030FB05B030BDD6
:108510000E20FBE73808030070B588B00446002938
:1085200024D0002C22D008462188102920D05029A0
:1085300024D057291AD10546A188406906AAFEF71A
:10854000E4FF002812D1069E307800280ED01821B2
:108550006846FDF7A4FF01208DF800000195A08872
:10856000ADF808000396A9696846884708B070BD51
:1085700008B02146BDE8704004F0EABE08B02146CC
:10858000BDE8704004F0C8BF70B504460D4608460B
:10859000FDF790FF2080656070BD0078C0F340005B
:1085A0007047007800F0010070470A78027049783F
:1085B00041700220704700000149085C70470000CC
:1085C000F0060300084908B5085C0090684603F00F
:1085D000EFFBD0F810050099C84010F0010000D062
:1085E000012080F0010008BDF00603002DE9FC41E8
:1085F0000646C0074FF000050ED0104F00240122A0
:10860000385D009500231146019503F02FFB641C93
:10861000042CF4D300F04EF8B0070DD5074E00241B
:10862000361D0022305D032300951146019503F0AD
:108630001DFB641C042CF4D3BDE8FC81EC06030094
:10864000094908B5085C0090684603F0B1FBD0F812
:108650000425009B0121994021EA0203C0F8083556
:108660001140C0F80C1508BDEC0603000249085C77
:10867000012103F0F4BB0000EC0603000249085C92
:10868000002103F0ECBB0000EC060300084908B52C
:10869000085C0090684603F08BFBD0F80405009955
:1086A000C84010F0010000D0012080F0010008BD9A
:1086B000EC06030010B500242046FFF7D7FF641C2A
:1086C000042CF9D310BD10B500242046FFF7D6FFC7
:1086D000641C042CF9D310BD10B50246064B4FF0B4
:1086E000FF3000215C5C944201D1084610BD491C5A
:1086F0000429F7D310BD0000F006030070B50C4E3E
:108700000C004FF0000530600BD0012000F06AF83B
:1087100008B1022004E0002000F064F800B10B2052
:108720002070706810B9FEF776FA0546284670BDCD
:108730008822002010B5002000F0DCF908B10628DE
:1087400006D1012000F0D6F908B1062800D100209A
:1087500010BD00002DE9F0470D468146FFF7BCFF34
:108760000446042836D2DFF874801B481C4EA8F15A
:108770000C0725B3012D0ED0022D2BD104EB4400A4
:1087800030444578002D25D0B968002922D02846EC
:10879000BDE8F047084704EB4401755C0E4471786E
:1087A00049B10E4A4FF40041093A8068FEF7D6FB02
:1087B00008B987F80390B17808F80410E2E78068F8
:1087C000FEF710FC04EB4401314418F804008D78E6
:1087D000A842D7D0BDE8F087F40603008422002029
:1087E00078280020042801D2FFF7ECBE0020704753
:1087F0000246144810B54088042A11D04FF6FF7184
:10880000072A16D00A2A07D00E2A19D1884217D073
:10881000BDE8104007F092B8BDE8104006F0B2BDC8
:10882000132176DF0AE000280AD0BDE81040FEF7E9
:1088300023BB884204D10448FFF73DF80828F2D151
:1088400010BD0000282200206027002070B5002302
:10885000042810D20D4D00EB4004012A02D1012959
:108860000CD00022094E00EB4000304461B10129D8
:1088700006D0022906D00723184670BD0E30C2B2BA
:108880002A55F9E74270F7E78270F5E7782800206B
:10889000044A014600201279D20702D0084600F0AF
:1088A0004DB870477822002070B506461E48002457
:1088B000C0E90161B00720D50025012211462846F4
:1088C000FFF7C4FF6D1C0446042D02D2002CF4D027
:1088D00013E094B940F2666204211448FEF752FA9C
:1088E00004000AD1FEF73CFA040006D10F48104AF2
:1088F0000021001FFEF7F4FA0446F00712D0012011
:10890000FFF774FE74B909480A4A00210C38FEF7D3
:10891000E7FA040006D10548074A01210838FEF7A6
:10892000DFFA0446204670BD7822002000070300CD
:10893000C18B020001A802004F6D02002DE9F05F1B
:108940006A4C054600266078B34618B184F801B039
:1089500001F03EFF664F4FF47A694FF4C87A4FF04A
:108960000108182D62D2DFE805F0AC0C0C31404D47
:1089700062676B746B74BE7D7D7D7D7DACAFB2B57F
:10898000BEBE0020FFF782FE00284FF0000008D096
:10899000FFF76CFE022D02D14FF4E16008E048467B
:1089A00006E0FFF76BFE022D01D1C82000E0504623
:1089B000410CC0034FF4FA72801841F10001257098
:1089C00052000023FDF70EFD01462AE00020FFF7CC
:1089D0005DFE00284FF0000004D0FFF747FE4FF483
:1089E0004870E5E7FFF74AFEDFE70020FFF74EFE9D
:1089F00000284FF0000002D0FFF738FECFE7FFF766
:108A00003DFED4E70020FFF741FE00284FF00000B4
:108A100002D0FFF72BFE01E0FFF730FE257041F694
:108A20009A1100223868FEF799FA064646E00020BF
:108A3000FFF706FE257008E0002051E025703DE0BC
:108A400084F801800120FFF7FBFD002240F6CD41B4
:108A5000E8E784F801800120FFF7F2FD00224FF4DF
:108A60008041DFE77868FEF7BDFA0646D5F11100D0
:108A700000D02EB10220FFF7F9FD84F802B01DE00E
:108A8000012816D980B2C8214843C117C90341EA59
:108A90005041C0034FF4FA72801841F100015200B6
:108AA0000023FDF79FFC014600227868FEF756FA86
:108AB00006460220FFF7E2FD84F802803046BDE85A
:108AC000F09F01F085FEB9E701F082FEB4E701F006
:108AD0007FFE04E001F07CFE0020FFF7CFFD0120C7
:108AE000FFF7CCFDAAE7FFF7EEFDA7E7782200200D
:108AF000F4060300012107F0CBBB00002DE9F84389
:108B00000546861C00208DF8000090460F464FF069
:108B100001096846FEF70CFB1B4C20683860D4E95D
:108B20000001401AA16804F21C47081A0EE0012156
:108B3000384602F0E6FA02F001F80146384602F043
:108B4000E0FAD4E90001401AA168081A401C8642E4
:108B5000EDD8B8F1000F03D0052065F3891002E0CD
:108B6000062065F39F50A2682168114004EB810143
:108B7000C8602068304420609DF80000FEF7FCFAD1
:108B80004846BDE8F88300007C30002030B482689D
:108B90000468531C8360A154D0E901128A4202D3B5
:108BA00030BC02F010BD30BC70470000034803C861
:108BB000814201D101207047002070477C300020A5
:108BC00000780221FFF7C6BD05494FF0FF320828A3
:108BD00041F8202002D3084480F858207047000054
:108BE000DC2B0020F0B54FF0FF3512B10023082632
:108BF00001E008230C260C4C05E000BF54F823705C
:108C00007F1C04D05B1CB342F8D32846F0BD261865
:108C10005DB286F8305044F82310002AF5D1E118EF
:108C200081F85800F1E70000DC2B002002490844DD
:108C300090F9300070470000DC2B00202DE9F04354
:108C40008FB01E46DDF8589015460F00804602D1C1
:108C50000020FEF711F915B90020FEF70DF91C21CF
:108C60006846FDF71CFC00249DF80000039440F0CA
:108C700002008DF80000012001948DF83600049464
:108C800005940694ADF834800C9430788DF830005B
:108C900070788DF831009DF83200142120F0060024
:108CA000801C20F019008DF8320007A8FDF7F7FBB3
:108CB0000DA807900CA808900748ADF82450ADF80F
:108CC0002640ADF828500B974B4607AA6946008806
:108CD000AADF0FB0BDE8F083EE22002070B5044695
:108CE0004FF6FF750A462846AC4208D14FF480740F
:108CF0002146104605F08EFAA04209D070BDFF2C27
:108D0000FCD82146104605F078FA08B1204670BD1F
:108D1000284670BD70B5084C050009D01034216894
:108D2000002907D008682060496828468847F6E788
:108D30000834F4E770BD0000C82B0020054A01216B
:108D400020B1012805D19170FFF7E4BF51700020D8
:108D5000FAE77047C82B00202DE9F05F26484168EC
:108D6000F1B3DFF898B00E688146DBF80040876801
:108D70008078E11B21F07F45ED1CB0B9DFF88080E1
:108D80004FF48030C8F84403C8F804031120FDF7FD
:108D9000D7FC1120FDF7DFFC4FF0010AC8F800A056
:108DA0002F2003F0C9FE89F802A0B54200D2354653
:108DB000124BE8193C3320F07F401860DBF80010BC
:108DC0005A46091B21F07F41001B20F07F40C91C3F
:108DD00081420FD9106818602F2003F0ADFE00E02B
:108DE00004E0BDE8F05F1120FDF7C0BCBDE8F05F16
:108DF00005F052BEBDE8F09F80230020041501401D
:108E00000010014073B58CB00646002000900D980C
:108E100080B100246D4621460DA802F054F930B10E
:108E2000009805EB400084800098401C0090641C72
:108E3000142CF0D32C2269463046FDF717FB0EB0F8
:108E400070BD2DE9F04117880646B81D14460D4641
:108E5000984202D90C20BDE8F0813188072206290A
:108E60000AD34FF4486C4FF6FF73614501D999421C
:108E700002D17088062801D21046ECE7604501D97E
:108E80009842F9D1994203D0984201D08142F3D857
:108E90000520E85520881221401C80B220802954EA
:108EA0002088401C80B220804119308807F09EF84D
:108EB0002188084480B220804119708807F096F814
:108EC0002188084420800020C5E7FDF7D5BF0000B9
:108ED00038B54A7A0F4B62B100220A7259690029EB
:108EE00006D001228DF80020ADF8020068468847C0
:108EF00038BD0A7A62B19B684C6802461946204622
:108F0000FEF72CF80028F3D0BDE8384006F002B890
:108F10005B68F1E7D8280020F0B585B016460F460B
:108F200004461D4614220B496846FDF79FFA0A487D
:108F30008DF80870ADF80240ADF80A608DF80C505D
:108F4000017800222046FEF749FF684600F058FAF3
:108F500005B0F0BD0C080300D0220020F0B587B0AA
:108F6000074600200490ADF810100590ADF81210DF
:108F70000190029001AA04A9384690DF060022D091
:108F800003F080FD114C0346012520883A4605EB8D
:108F900000400F4903F07BF9BDF8042012B9BDF879
:108FA000060038B12088BDF8063005EB004009A165
:108FB00003F06DF9BDF808202AB12088154905EBAA
:108FC000004003F05DF907B03046F0BD9424002066
:108FD000E40B0300546865207265717565737465F0
:108FE000642054582F5258207061636B6574206C54
:108FF000656E67746820697320746F6F206C6F6E84
:10900000672062792025752F2575206F637465743C
:10901000732E0000300C030030B5044685B00021EB
:109020001B4805F0EAF800282FD00025204600F064
:1090300012FF68B1112812D086281BD0A0F540512C
:10904000023903D00146204605F06CFF294607E0AF
:1090500005B029462046BDE8304001F04DBD012154
:10906000204601F049FD05B00021BDE83040084828
:1090700005F0F7B8142207496846FDF7F7F9ADF88F
:109080000240684600F098F9E0E705B030BD000006
:1090900099220020340703007FB50C4610B101204F
:1090A00004B070BD2079002638B141F61D55012865
:1090B0001BD0022826D00F20F2E702202071029652
:1090C0000396E0680190694601A805F041FC50B1A3
:1090D00002988188E18000882081BDF80010029804
:1090E00005F0B4FCDCE70A20DAE70A4B6A46002107
:1090F000A01D05F0E9FB38B1064918398E61CE6133
:109100000A28CDD12846CBE702488188019805F08E
:109110009DFCF5E7C02300202DE9F0470025DFF88E
:109120008C803CE06068002100EBC50601203278AD
:109130009146FDF788F9D4E9062300EA020701EA1F
:10914000030C57EA0C0728D082438B434846C4E9F6
:10915000062303F0AFFD32788246914601200021BC
:10916000FDF771F9D4E9042300EA020401EA0307D8
:109170004A4650460021FDF766F944404F403C43C3
:109180000BD17078012801D0012100E00021726824
:1091900081EA0A010AB1484690476D1CEDB298F881
:1091A000000044468542BDD3BDE8F087602300201F
:1091B00010B50021024801F0BFFF80F3100010BD80
:1091C000983400200E4910B50A784C780023A2424A
:1091D00012D0521CD2B20A70022A00D10B70084A77
:1091E0000B780C3252F8232002608868104420F07B
:1091F0007F408860012010BD0360002010BD00008A
:109200008023002013460A460021FFF785BE000098
:109210002DE9F843104D0F4680461E46914669469B
:10922000286801F0E4FE040014D01C21FDF737F992
:1092300001202071C4F81490380BC4F80080C4E9F0
:1092400002606946286801F0F3FE05F0D1FA0020BB
:10925000BDE8F8830420FBE7F008030010B50378AD
:109260000022072B06D2DFE803F0050406102029B0
:1092700030000A7010BD01230B7003898B81838835
:10928000CB81C06888600A7410BD02220A7002890E
:109290008A818288CA81C2688A60807D062802D05D
:1092A0000020087410BD0120FBE703220A70C28869
:1092B0008A810289CA81C068886010BD04230B704E
:1092C000C0888881CA818A6010BD0520087010BDE1
:1092D00070B5064D0646002455F8241009B13046F5
:1092E0008847641C042CF7D370BD0000DC2D0020DF
:1092F00030B50446006887B00D46806800281FD04E
:1093000018216846FDF7CBF80195A06805902079F3
:1093100010B1012810D107E001208DF8000020696C
:109320000290E068039005E002208DF80000E068FC
:10933000000302906069049020688168684688474D
:1093400007B030BD70B586B015460C00064619D082
:10935000112C17D0082C15D014216846FDF79FF862
:10936000ADF80260304601F089F8ADF804000D2C2C
:109370000AD0862C1CD007208DF800000294684685
:1093800000F04CF806B070BD03208DF8000025B148
:109390002878C00701D0012000E002208DF80800E5
:1093A00000208DF80C0041F20110ADF80A00E6E74C
:1093B00006208DF80000E2E710B50446408801F071
:1093C0005DF8A080024801682046BDE810400847CB
:1093D000A02200202DE9F04107460024064E074D4B
:1093E00005E000BF56F8241038468847641CE8782A
:1093F0008442F7DBBDE8F0817C2B0020C0220020F6
:1094000010B50446408801F039F8A0800248016890
:109410002046BDE810400847E007030001490968FD
:10942000084700003408030070B586B004461421D4
:109430006846FDF734F8A0890125A0F54040ADF855
:10944000040020782A4E062833D2DFE800F03203E9
:1094500003032C48A08900F0D0F930B9E08943F625
:10946000FE71A0F54040884223D8A07B8DF808000B
:10947000207803280FD000208DF80900A068039001
:10948000606850B109208DF800006068049068465B
:1094900004F00AFB0DE00120EEE708208DF8000043
:1094A0008DF81050F3E7A08900F0A7F908B1E08922
:1094B00030B17078002801D004F026FC06B070BDF1
:1094C000606820B10B208DF800007570DFE70A207E
:1094D0008DF80000BDF8040004F0A0FCF5E71320AF
:1094E0008DF800004FF6FF70ADF80400CFE70000E4
:1094F000B022002038B504460E480078A8B1A4F583
:109500007F40FF380FD0684605F0A4F878B10521F8
:10951000017001210171C480684605F0A9F805F0C9
:1095200059F9002038BD042038BD022038BD08207C
:1095300038BD0000C82300200C4808B5007888B169
:10954000684605F087F878B106210170684605F095
:109550008FF80748017809B10121017305F03AF944
:10956000002008BD022008BD082008BDC823002037
:10957000A02E0020F0B587B014216846FCF78FFFBD
:109580002B4C207818B16846FFF7A2FE4EE0201D54
:1095900001F0B4FDB8BB4FF010204169000402692E
:1095A00040694B1C01D100FB02F1224800220161FD
:1095B000A1F54051C160204902F094F9002820D162
:1095C0001F481C238C221D49006801F0FDFC04F09B
:1095D0005BF8051E14D0022812D000270126062DA4
:1095E00012D005A805F036F888B106700C2D18D2F7
:1095F000DFE805F0170F170F1716171617111311BD
:109600000B2007B0F0BD11E026706760BBE70820B3
:10961000F7E7077105E0032100E00221017100E096
:10962000067105A805F024F805F0D4F80020E8E755
:10963000C82300208024002000090300EC2D002016
:109640006808030038B5040014D0694605F080F9B5
:10965000A0B1BDF8000000EB8001094800EB8100DB
:10966000C16849B1A17A39B1C168491EC160002001
:10967000A07238BD052038BD062038BD0A2038BD8F
:10968000782E00201FB501A9684605F01DF904B029
:1096900010BD07B513460A466946002005F014F9C7
:1096A0000EBD07B513460A460021684605F00CF9C1
:1096B0000EBD20B119B10068086000207047052078
:1096C00070470000F8B50D46040018D0BDB16946DA
:1096D00005F03EF9A8B1BDF800000B4900EB800091
:1096E00001EB800001210C30666801F00AFD2E605C
:1096F00060680C3068600120A0720020F8BD052071
:10970000F8BD0A20F8BD0000782E002018B1032310
:10971000002206F0B5BE052070470223002206F0A5
:10972000AFBE12B1022306F0ABBE052070470000A9
:10973000084910B50A69042A0AD0074A096942F89B
:10974000210004480121103001F0DBFC002010BD95
:109750000C2010BDA8230020DC2D002038B50446C5
:1097600009480D46007858B164B16946284606F0AC
:1097700081FF002803D1BDF800102180658038BD2D
:10978000022038BD052038BDC823002010B504468E
:109790000E48007898B1A4B12188022913D80C4A48
:1097A00001EB810002EB800260885289C31C934266
:1097B00009D806F053FF00202080608010BD0220F1
:1097C00010BD052010BD042010BD0000C8230020DE
:1097D000782E0020826883881A4003689A5C0A7099
:1097E0008168491C81607047C26883881A40036899
:1097F0009954C168491CC160704743F6FE71A0F5D9
:109800004040884201D8012070470020704710B5C1
:1098100004460078182802D1FEF7BCFA207010BD6B
:1098200010B504460078182802D1FEF7B3FA20706C
:1098300010BD70B50D460446B0F89810D0F89400ED
:109840000122FDF747FF00B1057004F13C0204F16D
:10985000940104F1540072DF70BD000070B513462E
:10986000002206461546862902D0112902D002E0C0
:10987000012200E001250D4C73B1A179FEF7AEFA8B
:109880002A4661793046FEF7A9FA0022A1783046CF
:10989000FEF7A4FA002203E0A178FEF79FFA2A4619
:1098A00061783046BDE87040FEF798BAD8220020B3
:1098B000F7B517460E0011D00098002560B10024BE
:1098C0002146684601F0FFFB18B1A0B23946B04707
:1098D0006D1C641C142CF3D32846FEBD0020FEBD75
:1098E000406804F0D7BE00000EB516A19DF8080030
:1098F00020F00F00401C20F0F00010308DF8080020
:109900000E2202A87CDF08B1FDF7B6FA4FF44070D2
:1099100078DF08B1FDF7B0FA00204FF4C87100906D
:109920000190ADF80400ADF800104A00ADF8022037
:10993000ADF8061068467ADF002801D0FDF79CFAE2
:109940000EBD00004E6F726469635F4854535F4EF2
:109950005553000070B508B1012070BD1B4C0025A7
:10996000207B08B1257301E000F0A4F820780828D6
:109970002AD2DFE800F02904080C10291422BDE8DF
:10998000704000F025B8BDE8704000F081B8BDE837
:10999000704000F063B8BDE8704000F03FB80620AA
:1099A00020706088094900EB8000283901EB8000B5
:1099B0004068BDE8704003F047BE07202070656036
:1099C000BDE8704003F04EBE0F2070BDA02E0020F9
:1099D0001149F0B48A1C00200346A1F128050C1897
:1099E000A67A4EB1A37200EB800405EB8404E6680E
:1099F00016B9247C012C0AD0401C80B20228EED378
:109A00000B704B804B60F0BC41F61D5070471080CE
:109A1000F0BC00F03DB80000A02E00200C484188AA
:109A200001EB8102A0F1280101EB8201CA6852B169
:109A3000052101700748022181800168002301226D
:109A4000054801F0B9BE042202704968F6E700003B
:109A5000A02E0020D02300208024002038B50A4901
:109A6000084803240B684268898803EB8101538806
:109A70000470DB1C00201B0400909B0B034802F0C9
:109A80000BF838BDA02E0020D02300208024002019
:109A9000074910B54888091D04F0AAFF18B1BDE8B0
:109AA0001040FFF7DBBFBDE81040FFF7B7BF000075
:109AB000A02E0020F0B51F481F490125067802247A
:109AC0008B88A0F12802082E19D2DFE806F00418CE
:109AD000181B222F2F170189491C01810021418069
:109AE00080F80C1001EB810312F8233043B10023FE
:109AF0004418491C89B2A3720229F3D30570F0BD42
:109B00000123F5E742685288D21C1A448A80047007
:109B1000F0BD46880D6806EB860602EB86025668A5
:109B20000E60556013818C80062100E007210170D2
:109B3000F0BD0000A02E0020D023002030B5018809
:109B40008488224D85B0502924D0522902D054292E
:109B500031D103E0204600F09BFF2CE014221C4989
:109B60006846FCF783FCADF80240204600F086FC16
:109B7000ADF8040000F022F9002269792046FEF7D2
:109B80002DF9002229792046FEF728F96846FFF7CB
:109B900013FC10E0017B01290DD1817A01290AD142
:109BA0000089A0F52451023905D10121204600F099
:109BB000A3FF06F08BFA00220649E878FEF7B0F81A
:109BC00005B0BDE8304005F055BA000098220020ED
:109BD0005C0703009972020010B504460078002863
:109BE0000FD1608800F054FF608800F081F90028F0
:109BF00007D00449608801220979BDE81040FEF7CA
:109C0000EDB810BD9822002010B5124C0020207035
:109C1000FEF7C0F8A070FEF7BDF8E070FEF7BAF8E6
:109C20002071FEF7B7F86071A17818290FD0E1789C
:109C300018290CD02179182909D0182807D001211A
:109C4000601C04F0D3FA01202070002010BD032016
:109C500010BD0000982200207CB50446007808283A
:109C60002FD1607A38BB207A4FF6FF7501280DD0CE
:109C7000072802D0082824D11EE0A08800F03CFB71
:109C8000A8421ED0012100F037FF1AE0A0886A46E2
:109C9000012103F021FE70B90198007858B1A08825
:109CA00000F02AFBA8420CD0084901220979FEF7EE
:109CB00095F805F0DFF904E004480021401C04F0A9
:109CC000D0FABDE87C4006F001BA000098220020DE
:109CD00010B504460A4841782046FEF767F868B197
:109CE0000848002101EB410200EB82025288A242A7
:109CF00001D1C8B210BD491C1429F3D3FF2010BDF7
:109D0000AA2200206C29002070B5094D094E0024BC
:109D100004EB440005EB800071784088FEF746F8BC
:109D200020B1641C142CF3D3FF2070BDE0B270BDD1
:109D30006C290020AA2200202DE9F041804602462D
:109D400001200021FCF77FFB1A4F05460E4678687C
:109D5000FDF748F900280CD1174CD4E9062110462C
:109D60002A4001EA06031A4305D0A843B143C4E9D7
:109D70000601BDE8F081404602F09CFF30B1D4E915
:109D8000040128433143C4E9040105E0D4E9041087
:109D9000A943B043C4E90410D4E906012843314380
:109DA000C4E90601A1687868BDE8F0410022FDF72A
:109DB000D5B8000058080300602300201CB5054AF0
:109DC000D2E90212CDE900120022694603F0A9FD92
:109DD0001CBD00007407030003484FF6FF7181802B
:109DE0000121017000207047A42200202DE9FC41D0
:109DF000804600F043FB002403250127A0F57F41A6
:109E00002646FF3908D06A46082103F065FD18B9D7
:109E10000198841D8688056832462B4621464046B7
:109E2000B1DF042804D0082804D00B2808D002E0B1
:109E3000112000E00020002F00D10B20BDE8FC81A4
:109E40000027A80701D50125E6E73443F5D0002413
:109E500026460325E0E72DE9FC41804600F00EFB95
:109E60000646A0F57F40FF380ED001252A466D1C1E
:109E70000027ADB26B460821304603F057FD0400C1
:109E800006D0072C25D025E043F20200BDE8FC8176
:109E9000019903230A1D0B604046891DB2DF0400AF
:109EA00004D00C2C09D0052C09D009E03246082139
:109EB000104603F0B1FD04460CE0012700E0002449
:109EC0000821304603F094FD00B10324002FCDD1CA
:109ED00000E00C242046D9E704488088A0F57F41A3
:109EE000FF3901D005F0D0B870470000A42200204F
:109EF0000EB502A9019100F0C1FA6A46012103F0F2
:109F0000EBFC08B100200EBD019800780EBD0000EA
:109F10002DE9F04107464FF6FF760A48B3DF10B14E
:109F20000320BDE8F081074C43F20305A41E32462E
:109F300061883846AFDFA842F3D16088401C60805A
:109F4000F5E70000A6220020428800EB82020C32D6
:109F50008A4201D9022070478188A1F57F42FF3AE9
:109F600003D0008808B10020704701207047884264
:109F700004D20068401C01D00120704700207047C7
:109F800070B59CB00024064608949DF820000D464C
:109F900020F00F00401C20F0F00010308DF8200061
:109FA0009DF8220020F00600801C8DF82200087920
:109FB0008DF821001C2101A8FCF771FA9DF804001E
:109FC000029440F020008DF8040008A80494CDE924
:109FD0000540012007948DF86E0042F61C20ADF874
:109FE0006C0000949DF8020020F00600801C8DF8A3
:109FF000020069798DF80010A9798DF8011020F020
:10A00000180040F001008DF80200142109A8FCF7A7
:10A0100046FA20210EA8FCF742FA1BA80990CDF8B9
:10A0200028D016AA0EA9304600F010F8ADF82C0082
:10A030001420ADF8300016A8ADF82E400D90B08871
:10A04000B31D09AA01A9AADF1CB070BD30B50878FC
:10A05000002300B101234C780CB143F0020320B17E
:10A0600043F001030C7B086901E00C79886864F314
:10A070001F605070050A9570050CD570000E1071A8
:10A080004C78052084B18C8A5471240A94718C7D9B
:10A09000D471CC7D14720C7E54724C7E94728C7E82
:10A0A00043F00203D4720C208C7824B1097F115440
:10A0B00043F00403401C137030BD000070B5002550
:10A0C0000446057001206070A0701549154804F021
:10A0D0009CFFA91E2171A060217300EBC000052127
:10A0E000B0FBF1F000F5486020610E481C3850F8D4
:10A0F0000A1F61614068A061042020770948123876
:10A1000081791B31C9B281713B2908D93C398171F0
:10A110004179491CC9B241713B2900D9457170BDD3
:10A120002828002044220020F0B58FB00D460646B6
:10A130001C2101A8FCF7B3F99DF80400002440F0AD
:10A1400002008DF80400012705948DF8367042F660
:10A150001D20ADF8340000949DF80200029420F018
:10A160000600801C8DF80200049406940794E97997
:10A170008DF80010297A8DF8011020F019008DF863
:10A180000200142108A8FCF78AF9A87A8DF8380093
:10A190000DA80890ADF828700EA8CDF824D0ADF821
:10A1A0002A40ADF82C700C90B08806F10E0308AA76
:10A1B00001A9AADF0FB0F0BD3EB5027802230C461C
:10A1C000B3EB520F17D1B0F80110ADF80010C17801
:10A1D0008DF802108188ADF8041080798DF80600A2
:10A1E00002AA01A92046FCF789FD032202A96846BC
:10A1F000FCF767F908B100203EBD01203EBD00001C
:10A2000010B50C46FFF764FDFF280CD0074900EBA2
:10A21000400001EB8000416821600189A180807AC3
:10A22000A071002010BD052010BD00006C29002089
:10A2300070B5018890B0102959D1011D2C226846B3
:10A24000FCF714F99DF804004FF6FF76032134461D
:10A250006D46B1EB500F2AD003F094FC9DF804003A
:10A2600040080ED001280CD0022820D118E00D990A
:10A27000281D1131FCF7AAFC18B100BFBDF82C4015
:10A2800015E00CAA0BA9072003F050FC0028EED122
:10A290000DE00D99281D491CFFF78EFF0028EDD118
:10A2A0000CAA0BA9072003F041FC0028F1D1BDF84E
:10A2B0000000291D00F032FEB44218D0BDF80000A5
:10A2C000214600F0C5F8BDF80000ADF82E000020D2
:10A2D000ADF83040074E8DF82C000BAD044600BFA2
:10A2E00056F8241028468847641C022CF8D310B076
:10A2F00070BD000088070300094A002101EB4103FB
:10A3000032F82330834205D101EB410002EB80009B
:10A3100040887047491C1429F0D34FF6FF707047EE
:10A320006C2900203EB50C46054603F02BFC0BE0E3
:10A33000BDF80000A04207D02846029900F02EF890
:10A3400010B1BDF800003EBD01AA6946072003F028
:10A35000EDFB0028ECD14FF6FF703EBD10B50D4C63
:10A3600018200D4A607000204FF6FF7100EB40038B
:10A3700002EB8303401C59801428F7D3FDF70AFD34
:10A380006070182803D001202070002010BD032029
:10A3900010BD0000AA2200206C2900202DE9F04108
:10A3A0000C46054600F1110701F111061022491C67
:10A3B000401CFCF786F848B9681C00F0F9F928B190
:10A3C000601C00F0F5F908B1012400E000243146DA
:10A3D0003846FCF7FBFB3B780222B2EB530F0CD064
:10A3E0000321B1EB530F08D03378B2EB530F04D0F5
:10A3F000B1EB530F01D0012100E00021084201D14F
:10A400008C4302D00120BDE8F0810020FBE70188E9
:10A4100011B9421892780AB101207047491C0829E5
:10A42000F7D30020704710B50C460346FFF7EFFF47
:10A4300000280AD018882188884205D10822A11C4A
:10A44000981CFCF73EF808B1002010BD012010BD9B
:10A4500003F038BD70B50446FFF74EFF05462046B1
:10A4600003F03DFA4FF6FF7104468D4203D014B954
:10A47000284603F027FD204670BD000010B5FFF709
:10A4800027FCFF2805D0044900EB400031F82000EC
:10A4900010BD4FF6FF7010BD6C2900203EB504467C
:10A4A00003F070FB0EE0019920464631FFF7BBFF39
:10A4B00028B9019920462A31FFF7B5FF10B1BDF840
:10A4C00008003EBD6A4602A9072003F02FFB0028C2
:10A4D000E9D14FF6FF703EBD10B50A4941600A4808
:10A4E00000F00CFE58B902F057FA07491C238C22E1
:10A4F000087404488C39001F006800F065FD0020D6
:10A5000010BD0000F40803003C2F00202DE9F041AD
:10A510002D4F002518B17D600120BDE8F08108793C
:10A52000012258B1294E01280CD0274C4FF00208C7
:10A530000834022821D0032842D128E00A7103F010
:10A5400091F83BE05FF0000000EB800116F821106D
:10A55000022908D0401C80B20228F5D33A707D60F1
:10A5600041F61D50D9E700EB800006F8205006EBBD
:10A570008000406803F068F820E00D71A4F80480C2
:10A58000002301221248216801F016F916E00D712E
:10A59000206803F059F80D4923682831498801EBF8
:10A5A000810206EB8201D1F804C0C4F800C04B6000
:10A5B000A3880B81A4F8048006F822500028ACD0B0
:10A5C0007D600E20A9E70000C8230020782E00201F
:10A5D000802400200146034802888A4200D00020DF
:10A5E00070470000C42800202DE9FC5F0E00834660
:10A5F000DDE90C47C6F1000098469246814600D43A
:10A600000846012503E000BF90FBFAF06D1C5045A1
:10A61000FADAA84500D9454624B1002E01DB7807B7
:10A6200000D5641EB80702D5B8F1000F0AD0F807AC
:10A6300008D13CB1A54205D220215846641EFEF740
:10A64000A5FAF6E7002E02DA4E462D2102E0780741
:10A6500003D52B215846FEF799FA07F0030002288C
:10A660000BD1B8F1000F08D13CB1A54205D2302181
:10A670005846641EFEF78AFAF6E7CDE900474346DE
:10A6800052463146584605F0C7FCBDE8FC9F000025
:10A6900070B50D46044600684FF4887102F012FA56
:10A6A0004FF49071206802F00DFA4FF49271206817
:10A6B00002F008FA4FF4A271206802F003FA206851
:10A6C0001249C0F8041320686907000B40B2090E54
:10A6D000002806DA00F00F0000F1E02080F8141DD9
:10A6E00003E000F1E02080F8001420680121000B55
:10A6F00040B200F01F0291404009800000F1E020CC
:10A70000C0F88012C0F8001170BD000010030200F4
:10A71000024600201268930702D0530702D4704704
:10A72000500714D502F00300012802D002280CD1F2
:10A7300005E0C2F383100B68801C184404E0022378
:10A74000086803EB925210440860012070470868C3
:10A7500000EB9253C2F38910401CEEE70248007AE6
:10A76000002800D0012070473C2F0020F0B58488DD
:10A77000A518944200D82246A41AC288D6189A4234
:10A7800000D81346D21A4B880788BB420CD34088A6
:10A79000834209D88888A04206D3A84204D8C88832
:10A7A000904201D3B04201D90020F0BD0120F0BD9C
:10A7B0000021425C0AB101207047491C1029F8D3DE
:10A7C00000207047800701D00020704701207047AB
:10A7D0000A4810B5807860B1002401E0022C06D050
:10A7E0002046FDF743FF641C042CF7D310BD03245F
:10A7F000F6E7BDE81040FDF75DBF000078220020BD
:10A8000003480179C90702D00078FEF797B870476E
:10A8100078220020172101804180002101714171BF
:10A820001B218171C17170472DE9FE4F2B4D984658
:10A8300091460F00824601D000260DE0684600F0E8
:10A8400099FB6A460021504602F0B5FF2878009E29
:10A8500010B99DF8090098B14A463146504604F0B7
:10A8600001FF0446014600225046FEF7F7FF0D2C7B
:10A8700032D008DC84B3082C2ED00B2C0BD12BE06B
:10A880000520BDE8FE8F112C10D0862C1AD0A4F51F
:10A890004050023820D00325B8F1000F04D03246D2
:10A8A00021465046FEF74EFD2846EAE73A4629790A
:10A8B0005046FDF793FA4A46E9785046FDF78EFA7E
:10A8C0000025E9E73A4629795046FDF787FA4A46D6
:10A8D000E9785046FDF782FA2546DDE7D8220020C8
:10A8E0002DE9F041204F0E46154604463978FDF714
:10A8F0005DFA002835D0204602F054FF50B32046C0
:10A90000FFF7BCFD80462046B978FDF74FFA08B145
:10A91000012700E00227204603F0ECF9002840461A
:10A9200002D0FFF797FD0DE0A8F57F41FF3909D070
:10A93000072103F05DF8010004D0052902D020466C
:10A9400004F004FB2B46324639462046BDE8F04170
:10A95000FEF7E2BA2A4631462046BDE8F041FEF74E
:10A9600051BCBDE8F0810000D022002070B5094D37
:10A970000646E978FDF71AFA044629793046FDF7CC
:10A9800015FA014622463046BDE870400123FFF724
:10A990004BBF0000D82200202DE9F047394E002798
:10A9A00080463D46DFF8E090D6F804A057E003D09B
:10A9B0000446D0F81C8035E099F8002002EB4201F3
:10A9C000521CD2B289F8002009EBC10199F802307B
:10A9D000091D9A4201D189F8005048680A78044656
:10A9E000012A12D0022A02D0032A3BD108E005F046
:10A9F0001FF800B10127257434E00574C06900E038
:10AA000070680028F9D170602CE0207C50BB886809
:10AA10006060C868A0600869E0604869A061F0787B
:10AA200000B165606268B168184B501A20F07F4031
:10AA3000984202D2A168084406E0881AA16820F072
:10AA40007F40814202D9081A206000E025606560DD
:10AA50000120A56020742046E56104F0CBFFB8F129
:10AA60000000A4D199F8001099F801008142A3D107
:10AA700017B97168514502D00120BDE8F087002068
:10AA8000FBE7000080230020B82C0020FFFF7F00A0
:10AA900030B585B00546002414216846FBF7FFFC5D
:10AAA000A5F57F40ADF80250FF3815D02846FFF7D6
:10AAB0009DF998B10B2815D0112811D0A0F540515F
:10AAC000023903D00146284604F02CFA09482246F0
:10AAD000C1782846FDF782F905B030BD0E2002E0AE
:10AAE0000124F3E70F208DF800006846FEF764FCB0
:10AAF000ECE70000982200200A4602498978FDF719
:10AB00006DB9000098220020F8B5054600780C4683
:10AB1000002620420FD100208DF800006846FCF787
:10AB200007FB2878204202D12043287001269DF897
:10AB30000000FCF721FB3046F8BD00002DE9FF4185
:10AB40000026234800F0D7FA2148001F074600F0EE
:10AB5000D2FA204C60680090A56800E00098694631
:10AB6000284004EB80000C30FFF7D2FD0028F5D11F
:10AB700001AA009901EA050304EB8303491CDB6881
:10AB800042F82030401C00910228F2D3019800F0D6
:10AB9000030001280BD0022810D10198032101EBFA
:10ABA00090500099BDF80A6001EB900005E0019813
:10ABB000BDF80A60C0F3831008440090384600F0E6
:10ABC00097FA08B10098606004B03046BDE8F081A3
:10ABD000943400207C3000208AB018225249684604
:10ABE000FBF744FC5148069051494FF48070CDE981
:10ABF0000701099007234F4A06A96846FCF71CFA8B
:10AC000008B1FCF739F94FF40041002001F0A6FB30
:10AC100008B1FCF731F901F011FAFCF775F908B148
:10AC2000FCF72AF94048444A0121001FFCF758F973
:10AC300008B1FCF721F941490320FDF735FE08B1C1
:10AC4000FCF71AF969460020FDF758FD08B1FCF73A
:10AC500013F99DF80000022863D0002501F09CFC48
:10AC600008B1FCF709F901F04BFE08B1FCF704F953
:10AC7000002469460120009401F0D0FC08B1FCF7E3
:10AC8000FBF8684601F04EFD08B1FCF7F5F8FEF759
:10AC90002BFE00212A4800F0C4FA08B1FCF7ECF8BA
:10ACA00004F09EFAFBF7D2FF04F064F91C21684619
:10ACB000FBF7F5FB4FF42030CDE900404FF4702056
:10ACC00002902048059003261F488DF80C600690DE
:10ACD000ADF80E408DF810406846FCF7CDFF08B186
:10ACE000FCF7CAF803F0FCF8184819A1008806EB35
:10ACF000004001F0C1FA0C480022001F4FF48031DF
:10AD00000068FCF72BF908B1FCF7B6F82846FBF70A
:10AD1000D1FF00BF01F0A0F90028FBD101F050FCE9
:10AD2000F8E701259AE70000D4060300102500206B
:10AD30001026002061FC0200BD740200F1870200B1
:10AD40004027002035D30200CB8E0200CC24002007
:10AD50004865616C746820546865726D6F6D6574C8
:10AD60006572206578616D706C65207374617274B2
:10AD700065642E0070B5144682880E46054620880C
:10AD8000111D0144921C994201D8FE2A01D90C20C0
:10AD900070BD521C32542088FF21401C80B220809C
:10ADA00031542088401C80B220808119288805F009
:10ADB0001DF92188084480B22080AA8842B1A96880
:10ADC00041B13044FBF752FB2088A9880844208019
:10ADD000002070BD072070BD2DE9F047C7880446EC
:10ADE000181D16468946B0FBF7F1B0FBF7F207FBDA
:10ADF00012009A193A44D21CB2FBF7F2DDF820A0F7
:10AE000001E02468491E0029FBD13D1A8846B5425D
:10AE100016D818E0BAF1000F05D0211809EB080088
:10AE20002A46091D04E0204409EB08012A46001DBA
:10AE3000FBF71CFB00202468761BA844B74201D90D
:10AE4000354600E03D46002EE4D1BDE8F087000025
:10AE500030B5024659B101F0ADFA0021074C09E0C6
:10AE600004EB810315685B88AB4202D111600020BE
:10AE700030BD491C8142F3D3052030BD942400200D
:10AE8000F8B50F46017814460546012901D16878C6
:10AE900030B12088821C9A422DD8012902D006E0C8
:10AEA0000720F8BD69780144891C994223D8181AF3
:10AEB000801E86B2ADF800602188B81C084469463F
:10AEC0007DDF0028EDD12878022805D1BDF80010DB
:10AED000B14201D809210AE00821012805D168788A
:10AEE000B04202D8ADF8000001E0ADF80060BDF856
:10AEF0000000FE2801D90C20F8BD2288401CB8545F
:10AF00002088401C80B2208039542088401C20803A
:10AF1000BDF80010084420800020F8BD70B505463B
:10AF20000C004FF0FF0020D04FF6FF76B5421CD04A
:10AF30000E48012241782846FCF750FF2846FEF7CC
:10AF4000C7FEFF2803D1FEF7DFFEFF280DD0084B18
:10AF500000EB400203EB82014D8023F8226022685F
:10AF60004A60A2880A81A2798A7270BDAA22002052
:10AF70006C290020034A00219268C0E90021816009
:10AF800070470000D822002070B54FF6FF750E46BE
:10AF9000A84201D1002000E0401C84B208E0214614
:10AFA000304603F052F908B1204670BD641CA4B2CB
:10AFB000FF2CF4D9284670BD10B5FBF776F908B11F
:10AFC000002010BD112010BD10B531B1B2FBF3F45B
:10AFD00003FB14241CB1092010BD0E2010BD01601C
:10AFE0000021416081608281C381084610BD70B537
:10AFF0000C460546FBF70EF9002802D02188286888
:10B00000084470BD10B50A8849888A4203D1FBF70D
:10B0100043F9012010BD002010BD70B50C46054657
:10B02000FBF71DF9002802D061882868084470BD2C
:10B0300010B50A8849888A4203D1FBF707F9012035
:10B0400010BD002010BD01F01F0301229A40D24321
:10B05000490900EB8100114600F059B80A4601F099
:10B060001F030121994010B552090C4600EB8200E4
:10B0700000F05DF8204000D0012010BD2DE9F04126
:10B0800080460D460024481E012101EB501716E0B2
:10B0900058F82400C04390FAA0F0B0FA80F02028BD
:10B0A0000CD200EB4416AE4208D231464046FFF7C0
:10B0B000D5FF0028ECD13046BDE8F081641CA742E2
:10B0C000E6D82846F8E74A0950F8220001F01F02A6
:10B0D00001219140084000D00120704701F01F037A
:10B0E00001229A40490900EB8100114600F029B87D
:10B0F000002100F017B8012100F023B8012100F071
:10B1000016B808B56A46FBF71CF9009808BD08B5E3
:10B110006A46FBF7FCF8009808BD08B56A46FBF7DD
:10B1200010F908BD08B56A46FBF7F1F808BD08B587
:10B130006A46FBF7DFF808BD08B56A46FBF7CEF8AC
:10B1400008BD08B56A46FBF7D5F8009808BD08B5F4
:10B150006A46FBF703F9009808BD38B50446002598
:10B160008DF800506846FBF7E3FF216862680868C5
:10B1700090420ED9401E08600178A38AE26801FB64
:10B180000325227A2168101AC0B20A79824200D2BD
:10B1900008719DF80000FBF7EFFF284638BD38B571
:10B1A000054600208DF800000C466846FBF7C0FFFE
:10B1B000E868A98A201AB0FBF1F12A681068431CDC
:10B1C000136001709DF80000FBF7D6FF38BD10B585
:10B1D00030B1017A42680368891AC9B21A6006E080
:10B1E0000E2010BD03681A68541C1C601170491EA3
:10B1F000C9B2F7D2006800210171084610BDC2082B
:10B2000000F007030120895C98400840704710B5A2
:10B21000C20800F00703885C01249C402043885446
:10B2200010BD10B560B10161172120F8021B20F894
:10B23000021B1B2100F8021BFFF7ECFA002010BDD7
:10B240000E2010BDF0B5858893B00C46002D39D185
:10B25000018800263E4F24293BD006DC102909D066
:10B2600011290CD0232958D14FE03A290BD0552968
:10B2700053D129E00146204602F0A0F84DE0A01D80
:10B28000FFF7C8FA49E02246408934F8061F814298
:10B2900000D808466080172800D217206080106907
:10B2A00070B1607960B1D7E90001CDE90301ADF873
:10B2B0000E506088ADF81000136903A91046984736
:10B2C0006671267113B0F0BD0146204602F0C6F843
:10B2D00023E0011D2C2206A8FBF7C8F8BDF81800D2
:10B2E000BDF81C2004EBC0014A732269AAB1D7E95A
:10B2F0000423CDE90423ADF81200487B8DF8140037
:10B300002269204604A9904707E0017A207B884201
:10B3100000D201462846FDF721FEA07A0028D1D0B0
:10B32000E1882846A5DF012570B11128CAD001F0B7
:10B33000A9FB0246074808A1008813B005EB0040AE
:10B34000BDE8F04000F09CBFA672E572BAE70000CD
:10B35000900703009424002073645F626C655F674C
:10B36000617474635F65786368616E67655F6D744F
:10B37000755F7265717565737428292072657475BF
:10B38000726E65642025732E0000000020B10278E3
:10B39000DE2A03D0082070470E207047418000202D
:10B3A000704760B159B10278DE2A0AD0096841605D
:10B3B000DE2101704FF6FF714180002070470E20A2
:10B3C0007047082070477FB5054600294DD0002DF5
:10B3D0004BD008780C46DE2847D1A888618888427F
:10B3E00002D1204604F0C2FE2888012825D0022878
:10B3F0003BD011283AD0512837D135F8040F618855
:10B40000884232D1A978A81C02292ED1017A0429B8
:10B4100003D0062901D0052927D10021009102225D
:10B420008DF8002001914FF4C07202910391ADF8A4
:10B430000420007A05280FD010E0297A204601293F
:10B4400013D1A988428891420FD10121017204B021
:10B45000BDE8704004F08ABEADF804102888694643
:10B46000B0DF002801D0616888477FBDA888618867
:10B470008842FAD14FF6FF7060807FBD00F18040B6
:10B480000068002800D00120704708B500F1804016
:10B49000002101600068009008BD000070B50B4CF1
:10B4A000207808B185250FE00020A0606060206151
:10B4B000E060074801F022FB054601F06DFA08B98B
:10B4C00001F006FB01202070284670BDC82B00202B
:10B4D0003D8D020038B500258DF800506846FBF719
:10B4E00027FE074CE068401EE060E06810B901F0FC
:10B4F00015FBA5709DF80000FBF73EFE38BD00006F
:10B50000C82B0020F0B505460478154889B01646CA
:10B5100040F82420124A08690832A2F10C0742F8C8
:10B520002400487F385520226846FAF79FFF04948C
:10B530002878385C48B10EB10A4A00E0002269461A
:10B54000281D01F07BFD09B0F0BD0EB1064A00E0F8
:10B550000022694605F10C0001F026FCF3E700002B
:10B560003C230020C9FE020071FD020030B40378C4
:10B57000054CE35C1BB130BC001D01F095BD30BC37
:10B580000C3001F07BBC00003823002030B403787D
:10B59000054CE35C1BB130BC001D01F007BE30BCA4
:10B5A0000C3001F0E1BC0000382300200FB408B5D6
:10B5B0000399002904D004AA00926A4600F00FF80B
:10B5C00001B05DF814FB10B582680446002A05D06E
:10B5D000D4E90403216898470020A06010BD2DE93C
:10B5E000FC4791460C00804676D014F8011B39B117
:10B5F00025290ED04046FDF7C9FA20780028F4D15D
:10B6000098F80C00002867D04046BDE8FC47FFF7DB
:10B61000DABF0020012221782B291BD02D2902D04E
:10B62000302908D102E040F0010001E040F00200C2
:10B63000641C002AEFD100252A290ED02178A1F11F
:10B6400030020A2A11D205EB850201EB4205641C87
:10B65000303DF1E740F00400EAE7D9F800100B1D97
:10B66000C9F800300968641C0D44217800232E2994
:10B670000BD114F8011FA1F130020A2A05D203EB05
:10B68000830201EB4203303BF3E76C290DD06829BC
:10B690000BD0692921D00BDC252918D0582931D0AD
:10B6A00063290ED0642915D117E014F8011FECE7C7
:10B6B000702969D0732932D075291BD0782909D116
:10B6C00020E0D9F80000011DC9F8001001784046BB
:10B6D000FDF75CFA641C90E76CE0D9F800100A1DD5
:10B6E000C9F800200968CDE900500A224046FEF75B
:10B6F0007BFFEFE7D9F800100A1DC9F800200968A0
:10B700000A2206E0D9F800100A1DC9F800200968CD
:10B710001022CDE90050404604F07EFCDAE7D9F86B
:10B72000001000270A1DC9F800200E68C00705D1C7
:10B7300012E04046761C7F1CFDF728FA317800297C
:10B74000F7D104E0202140466D1EFDF71FFABD42EF
:10B75000C0D9002DF6D1BDE74EB13046FAF7AAFEAA
:10B76000074604E0202140466D1EFDF70FFABD425A
:10B7700006D9002DF6D103E04046761CFDF706FA07
:10B7800031780029F8D1A5E7D9F80000011DC9F8E2
:10B790000010056830214046FDF7F8F97821404651
:10B7A000FDF7F4F908200021CDE90001034610223D
:10B7B0002946B0E7BDE8FC872DE9F84F2B4E040081
:10B7C0009A4630884FF001031546894603EB004046
:10B7D00024D0216800292BD0002D32D06268494640
:10B7E0004FF010071268A2F1010C1CEA090F11D1E9
:10B7F00098466A432046FBF702FA00282AD02068C0
:10B8000053462A46066901B049462046B446BDE87B
:10B81000F04F6047164B17A2009721E00E210091D0
:10B82000134B1EA21FA100F03AFD0E20BDE8F88FB9
:10B83000082100910E4B26A21AA100F030FD08202D
:10B84000F4E7092100910A4B24A216A100F027FD7C
:10B850000920EBE700973188054B214A08EB0140AE
:10B8600010A100F01CFD1020E0E70000BC24002027
:10B87000DB080300616464725F69735F7061676510
:10B880005F616C69676E656428705F66732C2070F9
:10B890006167655F6164647229000000705F6673B0
:10B8A00000000000257320636865636B2066616992
:10B8B0006C656420696E2025732829207769746877
:10B8C0002076616C756520307825782E00000000A8
:10B8D000705F66732D3E705F617069006C656E000D
:10B8E000880C030038B503000F484FF001054FF0F6
:10B8F0000E04008805EB004009D061B119600C68A6
:10B9000001B0A446BDE83040114618466047074BD9
:10B9100007A2009402E0054B07A2009408A100F0E2
:10B92000BEFC0E2038BD0000BC240020900803009F
:10B93000705F667300000000705F61706900000056
:10B94000257320636865636B206661696C6564209C
:10B95000696E202573282920776974682076616CC8
:10B96000756520307825782E000000002DE9F04123
:10B9700028B1016819B1C969BDE8F04108470D4D0A
:10B980000D480024461B14270DE000BF04EB840083
:10B9900005EB8000016829B1C969884710B1012011
:10B9A000BDE8F081641CB6FBF7F0A042EED80020A1
:10B9B000F6E70000802400209424002004480121A0
:10B9C0004174007A08B100207047012070470000E0
:10B9D0003C2F0020012801D0032808D1044900226F
:10B9E00001284A7400D00020087402F0A3BE7047FA
:10B9F0003C2F002070B50246022801D0032A45D111
:10BA0000234C207A002841D0012833D0022831D19C
:10BA100020480023022A006802D0032A2AD11BE012
:10BA2000E360017911B1012924D10DE0D0E9056568
:10BA3000711B4FF48056B14200D3314629448161D5
:10BA40004569A9420ED015E00169491C01614269AE
:10BA500091420FD1237213E0E168491CE16008298B
:10BA600008D9E3602372022A0AD00D21FDF740FCB9
:10BA700002F006FE607C28B1BDE8704000F092BF85
:10BA80000021F3E7BDE8704002F054BE70BD000035
:10BA90003C2F0020EC2300202DE9F84F3A4D040004
:10BAA0008B4628884FF00106DDF828A0984691467D
:10BAB0004FF00E0106EB00401AD0B9F1000F1BD079
:10BAC0002168002920D00921B8F1000F25D0626833
:10BAD0005368B8FBF3F703FB1782002A21D02B4BE6
